{
  "_format": "hh-sol-artifact-1",
  "contractName": "DisplayProfileNFTs",
  "sourceName": "contracts/MintDisplayProfile.sol",
  "abi": [
    {
      "inputs": [],
      "stateMutability": "nonpayable",
      "type": "constructor"
    },
    {
      "anonymous": false,
      "inputs": [
        {
          "indexed": true,
          "internalType": "address",
          "name": "owner",
          "type": "address"
        },
        {
          "indexed": true,
          "internalType": "address",
          "name": "approved",
          "type": "address"
        },
        {
          "indexed": true,
          "internalType": "uint256",
          "name": "tokenId",
          "type": "uint256"
        }
      ],
      "name": "Approval",
      "type": "event"
    },
    {
      "anonymous": false,
      "inputs": [
        {
          "indexed": true,
          "internalType": "address",
          "name": "owner",
          "type": "address"
        },
        {
          "indexed": true,
          "internalType": "address",
          "name": "operator",
          "type": "address"
        },
        {
          "indexed": false,
          "internalType": "bool",
          "name": "approved",
          "type": "bool"
        }
      ],
      "name": "ApprovalForAll",
      "type": "event"
    },
    {
      "anonymous": false,
      "inputs": [
        {
          "indexed": true,
          "internalType": "address",
          "name": "previousOwner",
          "type": "address"
        },
        {
          "indexed": true,
          "internalType": "address",
          "name": "newOwner",
          "type": "address"
        }
      ],
      "name": "OwnershipTransferred",
      "type": "event"
    },
    {
      "anonymous": false,
      "inputs": [
        {
          "indexed": true,
          "internalType": "address",
          "name": "from",
          "type": "address"
        },
        {
          "indexed": true,
          "internalType": "address",
          "name": "to",
          "type": "address"
        },
        {
          "indexed": true,
          "internalType": "uint256",
          "name": "tokenId",
          "type": "uint256"
        }
      ],
      "name": "Transfer",
      "type": "event"
    },
    {
      "inputs": [
        {
          "internalType": "address",
          "name": "to",
          "type": "address"
        },
        {
          "internalType": "uint256",
          "name": "tokenId",
          "type": "uint256"
        }
      ],
      "name": "approve",
      "outputs": [],
      "stateMutability": "nonpayable",
      "type": "function"
    },
    {
      "inputs": [
        {
          "internalType": "address",
          "name": "owner",
          "type": "address"
        }
      ],
      "name": "balanceOf",
      "outputs": [
        {
          "internalType": "uint256",
          "name": "",
          "type": "uint256"
        }
      ],
      "stateMutability": "view",
      "type": "function"
    },
    {
      "inputs": [],
      "name": "getAllTokens",
      "outputs": [
        {
          "components": [
            {
              "internalType": "uint256",
              "name": "id",
              "type": "uint256"
            },
            {
              "internalType": "string",
              "name": "uri",
              "type": "string"
            },
            {
              "internalType": "string",
              "name": "space",
              "type": "string"
            }
          ],
          "internalType": "struct DisplayProfileNFTs.RenderToken[]",
          "name": "",
          "type": "tuple[]"
        }
      ],
      "stateMutability": "view",
      "type": "function"
    },
    {
      "inputs": [
        {
          "internalType": "uint256",
          "name": "tokenId",
          "type": "uint256"
        }
      ],
      "name": "getApproved",
      "outputs": [
        {
          "internalType": "address",
          "name": "",
          "type": "address"
        }
      ],
      "stateMutability": "view",
      "type": "function"
    },
    {
      "inputs": [
        {
          "internalType": "address",
          "name": "owner",
          "type": "address"
        },
        {
          "internalType": "address",
          "name": "operator",
          "type": "address"
        }
      ],
      "name": "isApprovedForAll",
      "outputs": [
        {
          "internalType": "bool",
          "name": "",
          "type": "bool"
        }
      ],
      "stateMutability": "view",
      "type": "function"
    },
    {
      "inputs": [
        {
          "internalType": "address",
          "name": "recepient",
          "type": "address"
        },
        {
          "internalType": "string",
          "name": "_uri",
          "type": "string"
        }
      ],
      "name": "mint",
      "outputs": [
        {
          "internalType": "uint256",
          "name": "",
          "type": "uint256"
        }
      ],
      "stateMutability": "nonpayable",
      "type": "function"
    },
    {
      "inputs": [],
      "name": "name",
      "outputs": [
        {
          "internalType": "string",
          "name": "",
          "type": "string"
        }
      ],
      "stateMutability": "view",
      "type": "function"
    },
    {
      "inputs": [],
      "name": "owner",
      "outputs": [
        {
          "internalType": "address",
          "name": "",
          "type": "address"
        }
      ],
      "stateMutability": "view",
      "type": "function"
    },
    {
      "inputs": [
        {
          "internalType": "uint256",
          "name": "tokenId",
          "type": "uint256"
        }
      ],
      "name": "ownerOf",
      "outputs": [
        {
          "internalType": "address",
          "name": "",
          "type": "address"
        }
      ],
      "stateMutability": "view",
      "type": "function"
    },
    {
      "inputs": [],
      "name": "renounceOwnership",
      "outputs": [],
      "stateMutability": "nonpayable",
      "type": "function"
    },
    {
      "inputs": [
        {
          "internalType": "address",
          "name": "from",
          "type": "address"
        },
        {
          "internalType": "address",
          "name": "to",
          "type": "address"
        },
        {
          "internalType": "uint256",
          "name": "tokenId",
          "type": "uint256"
        }
      ],
      "name": "safeTransferFrom",
      "outputs": [],
      "stateMutability": "nonpayable",
      "type": "function"
    },
    {
      "inputs": [
        {
          "internalType": "address",
          "name": "from",
          "type": "address"
        },
        {
          "internalType": "address",
          "name": "to",
          "type": "address"
        },
        {
          "internalType": "uint256",
          "name": "tokenId",
          "type": "uint256"
        },
        {
          "internalType": "bytes",
          "name": "data",
          "type": "bytes"
        }
      ],
      "name": "safeTransferFrom",
      "outputs": [],
      "stateMutability": "nonpayable",
      "type": "function"
    },
    {
      "inputs": [
        {
          "internalType": "address",
          "name": "operator",
          "type": "address"
        },
        {
          "internalType": "bool",
          "name": "approved",
          "type": "bool"
        }
      ],
      "name": "setApprovalForAll",
      "outputs": [],
      "stateMutability": "nonpayable",
      "type": "function"
    },
    {
      "inputs": [
        {
          "internalType": "bytes4",
          "name": "interfaceId",
          "type": "bytes4"
        }
      ],
      "name": "supportsInterface",
      "outputs": [
        {
          "internalType": "bool",
          "name": "",
          "type": "bool"
        }
      ],
      "stateMutability": "view",
      "type": "function"
    },
    {
      "inputs": [],
      "name": "symbol",
      "outputs": [
        {
          "internalType": "string",
          "name": "",
          "type": "string"
        }
      ],
      "stateMutability": "view",
      "type": "function"
    },
    {
      "inputs": [
        {
          "internalType": "uint256",
          "name": "_tokenID",
          "type": "uint256"
        }
      ],
      "name": "tokenURI",
      "outputs": [
        {
          "internalType": "string",
          "name": "",
          "type": "string"
        }
      ],
      "stateMutability": "view",
      "type": "function"
    },
    {
      "inputs": [
        {
          "internalType": "address",
          "name": "from",
          "type": "address"
        },
        {
          "internalType": "address",
          "name": "to",
          "type": "address"
        },
        {
          "internalType": "uint256",
          "name": "tokenId",
          "type": "uint256"
        }
      ],
      "name": "transferFrom",
      "outputs": [],
      "stateMutability": "nonpayable",
      "type": "function"
    },
    {
      "inputs": [
        {
          "internalType": "address",
          "name": "newOwner",
          "type": "address"
        }
      ],
      "name": "transferOwnership",
      "outputs": [],
      "stateMutability": "nonpayable",
      "type": "function"
    }
  ],
  "bytecode": "0x60806040523480156200001157600080fd5b506040518060400160405280601281526020017f446973706c617950726f66696c654e46547300000000000000000000000000008152506040518060400160405280600381526020017f44504e0000000000000000000000000000000000000000000000000000000000815250816000908051906020019062000096929190620001a6565b508060019080519060200190620000af929190620001a6565b505050620000d2620000c6620000d860201b60201c565b620000e060201b60201c565b620002bb565b600033905090565b6000600660009054906101000a900473ffffffffffffffffffffffffffffffffffffffff16905081600660006101000a81548173ffffffffffffffffffffffffffffffffffffffff021916908373ffffffffffffffffffffffffffffffffffffffff1602179055508173ffffffffffffffffffffffffffffffffffffffff168173ffffffffffffffffffffffffffffffffffffffff167f8be0079c531659141344cd1fd0a4f28419497f9722a3daafe3b4186f6b6457e060405160405180910390a35050565b828054620001b49062000285565b90600052602060002090601f016020900481019282620001d8576000855562000224565b82601f10620001f357805160ff191683800117855562000224565b8280016001018555821562000224579182015b828111156200022357825182559160200191906001019062000206565b5b50905062000233919062000237565b5090565b5b808211156200025257600081600090555060010162000238565b5090565b7f4e487b7100000000000000000000000000000000000000000000000000000000600052602260045260246000fd5b600060028204905060018216806200029e57607f821691505b60208210811415620002b557620002b462000256565b5b50919050565b612daf80620002cb6000396000f3fe608060405234801561001057600080fd5b50600436106101165760003560e01c8063715018a6116100a2578063b88d4fde11610071578063b88d4fde146102cd578063c87b56dd146102e9578063d0def52114610319578063e985e9c514610349578063f2fde38b1461037957610116565b8063715018a61461026b5780638da5cb5b1461027557806395d89b4114610293578063a22cb465146102b157610116565b806323b872dd116100e957806323b872dd146101b55780632a5c792a146101d157806342842e0e146101ef5780636352211e1461020b57806370a082311461023b57610116565b806301ffc9a71461011b57806306fdde031461014b578063081812fc14610169578063095ea7b314610199575b600080fd5b61013560048036038101906101309190611bde565b610395565b6040516101429190611c26565b60405180910390f35b610153610477565b6040516101609190611cda565b60405180910390f35b610183600480360381019061017e9190611d32565b610509565b6040516101909190611da0565b60405180910390f35b6101b360048036038101906101ae9190611de7565b61054f565b005b6101cf60048036038101906101ca9190611e27565b610667565b005b6101d96106c7565b6040516101e69190611fec565b60405180910390f35b61020960048036038101906102049190611e27565b6107e1565b005b61022560048036038101906102209190611d32565b610801565b6040516102329190611da0565b60405180910390f35b6102556004803603810190610250919061200e565b610888565b604051610262919061204a565b60405180910390f35b610273610940565b005b61027d610954565b60405161028a9190611da0565b60405180910390f35b61029b61097e565b6040516102a89190611cda565b60405180910390f35b6102cb60048036038101906102c69190612091565b610a10565b005b6102e760048036038101906102e29190612206565b610a26565b005b61030360048036038101906102fe9190611d32565b610a88565b6040516103109190611cda565b60405180910390f35b610333600480360381019061032e919061232a565b610b7b565b604051610340919061204a565b60405180910390f35b610363600480360381019061035e9190612386565b610bb2565b6040516103709190611c26565b60405180910390f35b610393600480360381019061038e919061200e565b610c46565b005b60007f80ac58cd000000000000000000000000000000000000000000000000000000007bffffffffffffffffffffffffffffffffffffffffffffffffffffffff1916827bffffffffffffffffffffffffffffffffffffffffffffffffffffffff1916148061046057507f5b5e139f000000000000000000000000000000000000000000000000000000007bffffffffffffffffffffffffffffffffffffffffffffffffffffffff1916827bffffffffffffffffffffffffffffffffffffffffffffffffffffffff1916145b80610470575061046f82610cca565b5b9050919050565b606060008054610486906123f5565b80601f01602080910402602001604051908101604052809291908181526020018280546104b2906123f5565b80156104ff5780601f106104d4576101008083540402835291602001916104ff565b820191906000526020600020905b8154815290600101906020018083116104e257829003601f168201915b5050505050905090565b600061051482610d34565b6004600083815260200190815260200160002060009054906101000a900473ffffffffffffffffffffffffffffffffffffffff169050919050565b600061055a82610801565b90508073ffffffffffffffffffffffffffffffffffffffff168373ffffffffffffffffffffffffffffffffffffffff1614156105cb576040517f08c379a00000000000000000000000000000000000000000000000000000000081526004016105c290612499565b60405180910390fd5b8073ffffffffffffffffffffffffffffffffffffffff166105ea610d7f565b73ffffffffffffffffffffffffffffffffffffffff161480610619575061061881610613610d7f565b610bb2565b5b610658576040517f08c379a000000000000000000000000000000000000000000000000000000000815260040161064f9061252b565b60405180910390fd5b6106628383610d87565b505050565b610678610672610d7f565b82610e40565b6106b7576040517f08c379a00000000000000000000000000000000000000000000000000000000081526004016106ae906125bd565b60405180910390fd5b6106c2838383610ed5565b505050565b606060006106d560076111cf565b905060008167ffffffffffffffff8111156106f3576106f26120db565b5b60405190808252806020026020018201604052801561072c57816020015b610719611aae565b8152602001906001900390816107115790505b50905060005b828110156107d857610743816111dd565b156107c557600061075382610a88565b905060405180606001604052808381526020018281526020016040518060400160405280600181526020017f20000000000000000000000000000000000000000000000000000000000000008152508152508383815181106107b8576107b76125dd565b5b6020026020010181905250505b80806107d09061263b565b915050610732565b50809250505090565b6107fc83838360405180602001604052806000815250610a26565b505050565b60008061080d8361121e565b9050600073ffffffffffffffffffffffffffffffffffffffff168173ffffffffffffffffffffffffffffffffffffffff16141561087f576040517f08c379a0000000000000000000000000000000000000000000000000000000008152600401610876906126d0565b60405180910390fd5b80915050919050565b60008073ffffffffffffffffffffffffffffffffffffffff168273ffffffffffffffffffffffffffffffffffffffff1614156108f9576040517f08c379a00000000000000000000000000000000000000000000000000000000081526004016108f090612762565b60405180910390fd5b600360008373ffffffffffffffffffffffffffffffffffffffff1673ffffffffffffffffffffffffffffffffffffffff168152602001908152602001600020549050919050565b61094861125b565b61095260006112d9565b565b6000600660009054906101000a900473ffffffffffffffffffffffffffffffffffffffff16905090565b60606001805461098d906123f5565b80601f01602080910402602001604051908101604052809291908181526020018280546109b9906123f5565b8015610a065780601f106109db57610100808354040283529160200191610a06565b820191906000526020600020905b8154815290600101906020018083116109e957829003601f168201915b5050505050905090565b610a22610a1b610d7f565b838361139f565b5050565b610a37610a31610d7f565b83610e40565b610a76576040517f08c379a0000000000000000000000000000000000000000000000000000000008152600401610a6d906125bd565b60405180910390fd5b610a828484848461150c565b50505050565b6060610a93826111dd565b610ad2576040517f08c379a0000000000000000000000000000000000000000000000000000000008152600401610ac9906127f4565b60405180910390fd5b6000600860008481526020019081526020016000208054610af2906123f5565b80601f0160208091040260200160405190810160405280929190818152602001828054610b1e906123f5565b8015610b6b5780601f10610b4057610100808354040283529160200191610b6b565b820191906000526020600020905b815481529060010190602001808311610b4e57829003601f168201915b5050505050905080915050919050565b600080610b8860076111cf565b9050610b948482611568565b610b9e8184611786565b610ba860076117b2565b8091505092915050565b6000600560008473ffffffffffffffffffffffffffffffffffffffff1673ffffffffffffffffffffffffffffffffffffffff16815260200190815260200160002060008373ffffffffffffffffffffffffffffffffffffffff1673ffffffffffffffffffffffffffffffffffffffff16815260200190815260200160002060009054906101000a900460ff16905092915050565b610c4e61125b565b600073ffffffffffffffffffffffffffffffffffffffff168173ffffffffffffffffffffffffffffffffffffffff161415610cbe576040517f08c379a0000000000000000000000000000000000000000000000000000000008152600401610cb590612886565b60405180910390fd5b610cc7816112d9565b50565b60007f01ffc9a7000000000000000000000000000000000000000000000000000000007bffffffffffffffffffffffffffffffffffffffffffffffffffffffff1916827bffffffffffffffffffffffffffffffffffffffffffffffffffffffff1916149050919050565b610d3d816111dd565b610d7c576040517f08c379a0000000000000000000000000000000000000000000000000000000008152600401610d73906126d0565b60405180910390fd5b50565b600033905090565b816004600083815260200190815260200160002060006101000a81548173ffffffffffffffffffffffffffffffffffffffff021916908373ffffffffffffffffffffffffffffffffffffffff160217905550808273ffffffffffffffffffffffffffffffffffffffff16610dfa83610801565b73ffffffffffffffffffffffffffffffffffffffff167f8c5be1e5ebec7d5bd14f71427d1e84f3dd0314c0f7b2291e5b200ac8c7c3b92560405160405180910390a45050565b600080610e4c83610801565b90508073ffffffffffffffffffffffffffffffffffffffff168473ffffffffffffffffffffffffffffffffffffffff161480610e8e5750610e8d8185610bb2565b5b80610ecc57508373ffffffffffffffffffffffffffffffffffffffff16610eb484610509565b73ffffffffffffffffffffffffffffffffffffffff16145b91505092915050565b8273ffffffffffffffffffffffffffffffffffffffff16610ef582610801565b73ffffffffffffffffffffffffffffffffffffffff1614610f4b576040517f08c379a0000000000000000000000000000000000000000000000000000000008152600401610f4290612918565b60405180910390fd5b600073ffffffffffffffffffffffffffffffffffffffff168273ffffffffffffffffffffffffffffffffffffffff161415610fbb576040517f08c379a0000000000000000000000000000000000000000000000000000000008152600401610fb2906129aa565b60405180910390fd5b610fc883838360016117c8565b8273ffffffffffffffffffffffffffffffffffffffff16610fe882610801565b73ffffffffffffffffffffffffffffffffffffffff161461103e576040517f08c379a000000000000000000000000000000000000000000000000000000000815260040161103590612918565b60405180910390fd5b6004600082815260200190815260200160002060006101000a81549073ffffffffffffffffffffffffffffffffffffffff02191690556001600360008573ffffffffffffffffffffffffffffffffffffffff1673ffffffffffffffffffffffffffffffffffffffff168152602001908152602001600020600082825403925050819055506001600360008473ffffffffffffffffffffffffffffffffffffffff1673ffffffffffffffffffffffffffffffffffffffff16815260200190815260200160002060008282540192505081905550816002600083815260200190815260200160002060006101000a81548173ffffffffffffffffffffffffffffffffffffffff021916908373ffffffffffffffffffffffffffffffffffffffff160217905550808273ffffffffffffffffffffffffffffffffffffffff168473ffffffffffffffffffffffffffffffffffffffff167fddf252ad1be2c89b69c2b068fc378daa952ba7f163c4a11628f55a4df523b3ef60405160405180910390a46111ca83838360016118ee565b505050565b600081600001549050919050565b60008073ffffffffffffffffffffffffffffffffffffffff166111ff8361121e565b73ffffffffffffffffffffffffffffffffffffffff1614159050919050565b60006002600083815260200190815260200160002060009054906101000a900473ffffffffffffffffffffffffffffffffffffffff169050919050565b611263610d7f565b73ffffffffffffffffffffffffffffffffffffffff16611281610954565b73ffffffffffffffffffffffffffffffffffffffff16146112d7576040517f08c379a00000000000000000000000000000000000000000000000000000000081526004016112ce90612a16565b60405180910390fd5b565b6000600660009054906101000a900473ffffffffffffffffffffffffffffffffffffffff16905081600660006101000a81548173ffffffffffffffffffffffffffffffffffffffff021916908373ffffffffffffffffffffffffffffffffffffffff1602179055508173ffffffffffffffffffffffffffffffffffffffff168173ffffffffffffffffffffffffffffffffffffffff167f8be0079c531659141344cd1fd0a4f28419497f9722a3daafe3b4186f6b6457e060405160405180910390a35050565b8173ffffffffffffffffffffffffffffffffffffffff168373ffffffffffffffffffffffffffffffffffffffff16141561140e576040517f08c379a000000000000000000000000000000000000000000000000000000000815260040161140590612a82565b60405180910390fd5b80600560008573ffffffffffffffffffffffffffffffffffffffff1673ffffffffffffffffffffffffffffffffffffffff16815260200190815260200160002060008473ffffffffffffffffffffffffffffffffffffffff1673ffffffffffffffffffffffffffffffffffffffff16815260200190815260200160002060006101000a81548160ff0219169083151502179055508173ffffffffffffffffffffffffffffffffffffffff168373ffffffffffffffffffffffffffffffffffffffff167f17307eab39ab6107e8899845ad3d59bd9653f200f220920489ca2b5937696c31836040516114ff9190611c26565b60405180910390a3505050565b611517848484610ed5565b611523848484846118f4565b611562576040517f08c379a000000000000000000000000000000000000000000000000000000000815260040161155990612b14565b60405180910390fd5b50505050565b600073ffffffffffffffffffffffffffffffffffffffff168273ffffffffffffffffffffffffffffffffffffffff1614156115d8576040517f08c379a00000000000000000000000000000000000000000000000000000000081526004016115cf90612b80565b60405180910390fd5b6115e1816111dd565b15611621576040517f08c379a000000000000000000000000000000000000000000000000000000000815260040161161890612bec565b60405180910390fd5b61162f6000838360016117c8565b611638816111dd565b15611678576040517f08c379a000000000000000000000000000000000000000000000000000000000815260040161166f90612bec565b60405180910390fd5b6001600360008473ffffffffffffffffffffffffffffffffffffffff1673ffffffffffffffffffffffffffffffffffffffff16815260200190815260200160002060008282540192505081905550816002600083815260200190815260200160002060006101000a81548173ffffffffffffffffffffffffffffffffffffffff021916908373ffffffffffffffffffffffffffffffffffffffff160217905550808273ffffffffffffffffffffffffffffffffffffffff16600073ffffffffffffffffffffffffffffffffffffffff167fddf252ad1be2c89b69c2b068fc378daa952ba7f163c4a11628f55a4df523b3ef60405160405180910390a46117826000838360016118ee565b5050565b806008600084815260200190815260200160002090805190602001906117ad929190611acf565b505050565b6001816000016000828254019250508190555050565b60018111156118e857600073ffffffffffffffffffffffffffffffffffffffff168473ffffffffffffffffffffffffffffffffffffffff161461185c5780600360008673ffffffffffffffffffffffffffffffffffffffff1673ffffffffffffffffffffffffffffffffffffffff16815260200190815260200160002060008282546118549190612c0c565b925050819055505b600073ffffffffffffffffffffffffffffffffffffffff168373ffffffffffffffffffffffffffffffffffffffff16146118e75780600360008573ffffffffffffffffffffffffffffffffffffffff1673ffffffffffffffffffffffffffffffffffffffff16815260200190815260200160002060008282546118df9190612c40565b925050819055505b5b50505050565b50505050565b60006119158473ffffffffffffffffffffffffffffffffffffffff16611a8b565b15611a7e578373ffffffffffffffffffffffffffffffffffffffff1663150b7a0261193e610d7f565b8786866040518563ffffffff1660e01b81526004016119609493929190612ceb565b602060405180830381600087803b15801561197a57600080fd5b505af19250505080156119ab57506040513d601f19601f820116820180604052508101906119a89190612d4c565b60015b611a2e573d80600081146119db576040519150601f19603f3d011682016040523d82523d6000602084013e6119e0565b606091505b50600081511415611a26576040517f08c379a0000000000000000000000000000000000000000000000000000000008152600401611a1d90612b14565b60405180910390fd5b805181602001fd5b63150b7a0260e01b7bffffffffffffffffffffffffffffffffffffffffffffffffffffffff1916817bffffffffffffffffffffffffffffffffffffffffffffffffffffffff191614915050611a83565b600190505b949350505050565b6000808273ffffffffffffffffffffffffffffffffffffffff163b119050919050565b60405180606001604052806000815260200160608152602001606081525090565b828054611adb906123f5565b90600052602060002090601f016020900481019282611afd5760008555611b44565b82601f10611b1657805160ff1916838001178555611b44565b82800160010185558215611b44579182015b82811115611b43578251825591602001919060010190611b28565b5b509050611b519190611b55565b5090565b5b80821115611b6e576000816000905550600101611b56565b5090565b6000604051905090565b600080fd5b600080fd5b60007fffffffff0000000000000000000000000000000000000000000000000000000082169050919050565b611bbb81611b86565b8114611bc657600080fd5b50565b600081359050611bd881611bb2565b92915050565b600060208284031215611bf457611bf3611b7c565b5b6000611c0284828501611bc9565b91505092915050565b60008115159050919050565b611c2081611c0b565b82525050565b6000602082019050611c3b6000830184611c17565b92915050565b600081519050919050565b600082825260208201905092915050565b60005b83811015611c7b578082015181840152602081019050611c60565b83811115611c8a576000848401525b50505050565b6000601f19601f8301169050919050565b6000611cac82611c41565b611cb68185611c4c565b9350611cc6818560208601611c5d565b611ccf81611c90565b840191505092915050565b60006020820190508181036000830152611cf48184611ca1565b905092915050565b6000819050919050565b611d0f81611cfc565b8114611d1a57600080fd5b50565b600081359050611d2c81611d06565b92915050565b600060208284031215611d4857611d47611b7c565b5b6000611d5684828501611d1d565b91505092915050565b600073ffffffffffffffffffffffffffffffffffffffff82169050919050565b6000611d8a82611d5f565b9050919050565b611d9a81611d7f565b82525050565b6000602082019050611db56000830184611d91565b92915050565b611dc481611d7f565b8114611dcf57600080fd5b50565b600081359050611de181611dbb565b92915050565b60008060408385031215611dfe57611dfd611b7c565b5b6000611e0c85828601611dd2565b9250506020611e1d85828601611d1d565b9150509250929050565b600080600060608486031215611e4057611e3f611b7c565b5b6000611e4e86828701611dd2565b9350506020611e5f86828701611dd2565b9250506040611e7086828701611d1d565b9150509250925092565b600081519050919050565b600082825260208201905092915050565b6000819050602082019050919050565b611eaf81611cfc565b82525050565b600082825260208201905092915050565b6000611ed182611c41565b611edb8185611eb5565b9350611eeb818560208601611c5d565b611ef481611c90565b840191505092915050565b6000606083016000830151611f176000860182611ea6565b5060208301518482036020860152611f2f8282611ec6565b91505060408301518482036040860152611f498282611ec6565b9150508091505092915050565b6000611f628383611eff565b905092915050565b6000602082019050919050565b6000611f8282611e7a565b611f8c8185611e85565b935083602082028501611f9e85611e96565b8060005b85811015611fda5784840389528151611fbb8582611f56565b9450611fc683611f6a565b925060208a01995050600181019050611fa2565b50829750879550505050505092915050565b600060208201905081810360008301526120068184611f77565b905092915050565b60006020828403121561202457612023611b7c565b5b600061203284828501611dd2565b91505092915050565b61204481611cfc565b82525050565b600060208201905061205f600083018461203b565b92915050565b61206e81611c0b565b811461207957600080fd5b50565b60008135905061208b81612065565b92915050565b600080604083850312156120a8576120a7611b7c565b5b60006120b685828601611dd2565b92505060206120c78582860161207c565b9150509250929050565b600080fd5b600080fd5b7f4e487b7100000000000000000000000000000000000000000000000000000000600052604160045260246000fd5b61211382611c90565b810181811067ffffffffffffffff82111715612132576121316120db565b5b80604052505050565b6000612145611b72565b9050612151828261210a565b919050565b600067ffffffffffffffff821115612171576121706120db565b5b61217a82611c90565b9050602081019050919050565b82818337600083830152505050565b60006121a96121a484612156565b61213b565b9050828152602081018484840111156121c5576121c46120d6565b5b6121d0848285612187565b509392505050565b600082601f8301126121ed576121ec6120d1565b5b81356121fd848260208601612196565b91505092915050565b600080600080608085870312156122205761221f611b7c565b5b600061222e87828801611dd2565b945050602061223f87828801611dd2565b935050604061225087828801611d1d565b925050606085013567ffffffffffffffff81111561227157612270611b81565b5b61227d878288016121d8565b91505092959194509250565b600067ffffffffffffffff8211156122a4576122a36120db565b5b6122ad82611c90565b9050602081019050919050565b60006122cd6122c884612289565b61213b565b9050828152602081018484840111156122e9576122e86120d6565b5b6122f4848285612187565b509392505050565b600082601f830112612311576123106120d1565b5b81356123218482602086016122ba565b91505092915050565b6000806040838503121561234157612340611b7c565b5b600061234f85828601611dd2565b925050602083013567ffffffffffffffff8111156123705761236f611b81565b5b61237c858286016122fc565b9150509250929050565b6000806040838503121561239d5761239c611b7c565b5b60006123ab85828601611dd2565b92505060206123bc85828601611dd2565b9150509250929050565b7f4e487b7100000000000000000000000000000000000000000000000000000000600052602260045260246000fd5b6000600282049050600182168061240d57607f821691505b60208210811415612421576124206123c6565b5b50919050565b7f4552433732313a20617070726f76616c20746f2063757272656e74206f776e6560008201527f7200000000000000000000000000000000000000000000000000000000000000602082015250565b6000612483602183611c4c565b915061248e82612427565b604082019050919050565b600060208201905081810360008301526124b281612476565b9050919050565b7f4552433732313a20617070726f76652063616c6c6572206973206e6f7420746f60008201527f6b656e206f776e6572206f7220617070726f76656420666f7220616c6c000000602082015250565b6000612515603d83611c4c565b9150612520826124b9565b604082019050919050565b6000602082019050818103600083015261254481612508565b9050919050565b7f4552433732313a2063616c6c6572206973206e6f7420746f6b656e206f776e6560008201527f72206f7220617070726f76656400000000000000000000000000000000000000602082015250565b60006125a7602d83611c4c565b91506125b28261254b565b604082019050919050565b600060208201905081810360008301526125d68161259a565b9050919050565b7f4e487b7100000000000000000000000000000000000000000000000000000000600052603260045260246000fd5b7f4e487b7100000000000000000000000000000000000000000000000000000000600052601160045260246000fd5b600061264682611cfc565b91507fffffffffffffffffffffffffffffffffffffffffffffffffffffffffffffffff8214156126795761267861260c565b5b600182019050919050565b7f4552433732313a20696e76616c696420746f6b656e2049440000000000000000600082015250565b60006126ba601883611c4c565b91506126c582612684565b602082019050919050565b600060208201905081810360008301526126e9816126ad565b9050919050565b7f4552433732313a2061646472657373207a65726f206973206e6f74206120766160008201527f6c6964206f776e65720000000000000000000000000000000000000000000000602082015250565b600061274c602983611c4c565b9150612757826126f0565b604082019050919050565b6000602082019050818103600083015261277b8161273f565b9050919050565b7f555249206e6f7420666f756e6420666f72207468697320676976656e20546f6b60008201527f656e204944210000000000000000000000000000000000000000000000000000602082015250565b60006127de602683611c4c565b91506127e982612782565b604082019050919050565b6000602082019050818103600083015261280d816127d1565b9050919050565b7f4f776e61626c653a206e6577206f776e657220697320746865207a65726f206160008201527f6464726573730000000000000000000000000000000000000000000000000000602082015250565b6000612870602683611c4c565b915061287b82612814565b604082019050919050565b6000602082019050818103600083015261289f81612863565b9050919050565b7f4552433732313a207472616e736665722066726f6d20696e636f72726563742060008201527f6f776e6572000000000000000000000000000000000000000000000000000000602082015250565b6000612902602583611c4c565b915061290d826128a6565b604082019050919050565b60006020820190508181036000830152612931816128f5565b9050919050565b7f4552433732313a207472616e7366657220746f20746865207a65726f2061646460008201527f7265737300000000000000000000000000000000000000000000000000000000602082015250565b6000612994602483611c4c565b915061299f82612938565b604082019050919050565b600060208201905081810360008301526129c381612987565b9050919050565b7f4f776e61626c653a2063616c6c6572206973206e6f7420746865206f776e6572600082015250565b6000612a00602083611c4c565b9150612a0b826129ca565b602082019050919050565b60006020820190508181036000830152612a2f816129f3565b9050919050565b7f4552433732313a20617070726f766520746f2063616c6c657200000000000000600082015250565b6000612a6c601983611c4c565b9150612a7782612a36565b602082019050919050565b60006020820190508181036000830152612a9b81612a5f565b9050919050565b7f4552433732313a207472616e7366657220746f206e6f6e20455243373231526560008201527f63656976657220696d706c656d656e7465720000000000000000000000000000602082015250565b6000612afe603283611c4c565b9150612b0982612aa2565b604082019050919050565b60006020820190508181036000830152612b2d81612af1565b9050919050565b7f4552433732313a206d696e7420746f20746865207a65726f2061646472657373600082015250565b6000612b6a602083611c4c565b9150612b7582612b34565b602082019050919050565b60006020820190508181036000830152612b9981612b5d565b9050919050565b7f4552433732313a20746f6b656e20616c7265616479206d696e74656400000000600082015250565b6000612bd6601c83611c4c565b9150612be182612ba0565b602082019050919050565b60006020820190508181036000830152612c0581612bc9565b9050919050565b6000612c1782611cfc565b9150612c2283611cfc565b925082821015612c3557612c3461260c565b5b828203905092915050565b6000612c4b82611cfc565b9150612c5683611cfc565b9250827fffffffffffffffffffffffffffffffffffffffffffffffffffffffffffffffff03821115612c8b57612c8a61260c565b5b828201905092915050565b600081519050919050565b600082825260208201905092915050565b6000612cbd82612c96565b612cc78185612ca1565b9350612cd7818560208601611c5d565b612ce081611c90565b840191505092915050565b6000608082019050612d006000830187611d91565b612d0d6020830186611d91565b612d1a604083018561203b565b8181036060830152612d2c8184612cb2565b905095945050505050565b600081519050612d4681611bb2565b92915050565b600060208284031215612d6257612d61611b7c565b5b6000612d7084828501612d37565b9150509291505056fea2646970667358221220ba8d6f180fe5c8d37a543816ad911a7bf313044dcdd3f182d5620a13f6357dc064736f6c63430008090033",
  "linkReferences": {},
  "deployedLinkReferences": {}
}